:020000040800F2
:1000000010140020450100084D3A0008E3310008B3
:10001000493A0008F9060008014300080000000002
:10002000000000000000000000000000E73B0008A6
:100030005907000800000000513A0008E93B000899
:100040005F0100085F0100085F010008753B0008C0
:100050005F0100085F0100085F0100085F01000800
:100060005F0100085F0100085F0100085F010008F0
:100070005F0100085F010008FD0600080D07000889
:100080005F0100085F0100085F0100085F010008D0
:100090005F0100085F0100085F0100085F010008C0
:1000A0005F0100085F0100085F0100085F010008B0
:1000B000813C00085F0100085F0100085F01000843
:1000C0005F0100085F0100085F0100085F01000890
:1000D0005F010008F14200085F0100085F010008AD
:1000E0005F0100087D3A00085F0100085F01000819
:1000F0005F0100085F0100085F0100087D0500083E
:100100005F0100085F0100085F0100085F0100084F
:100110005F0100085F0100085F0100085F0100083F
:100120005F0100085F0100085F0100081D0700086B
:10013000DFF80CD000F000FA0048004769760008AC
:10014000101400200648804706480047FEE7FEE7F7
:10015000FEE7FEE7FEE7FEE7FEE7FEE7FEE7FEE777
:100160007D3C000831010008202A04DB203A21FAF6
:1001700002F00021704721FA02F3D040C2F12002C0
:10018000914008431946704738B5D0E90221491E0D
:1001900001EB410102EBC1014268C1EB011102EB2D
:1001A00081010268C1EB011102EB8102D0E9043147
:1001B00001EB410103EB81013023A1F5527191FB69
:1001C000F3F4174D6C4302EBC41291FBF3F403FB01
:1001D000141100921A2902DB124B1A4400920C22CD
:1001E00091FBF2F3104C6343009C04EBC3130093A8
:1001F00091FBF2F302FB13110C4A08E0491E40F296
:10020000A324535C6343009C04EBC31300930029B5
:10021000F4DC0146684600F0EBF8009838BD0000B9
:100220003F0C0F008051010067C20300F4B40008C6
:1002300040EA01039B0703D009E008C9121F08C068
:10024000042AFAD203E011F8013B00F8013B521EE8
:10025000F9D27047D2B201E000F8012B491EFBD25F
:1002600070470022F6E710B513460A4604461946C1
:10027000FFF7F0FF204610BD421C10F8011B0029BB
:10028000FBD1801A70472DE9FE4F81EA030404F088
:10029000004421F0004100944FF0000B23F0004394
:1002A00050EA01045ED052EA03045BD0C3F30A545F
:1002B000C1F30A552C44A4F2F3340194A0FB025478
:1002C000C1F3130141F48011C3F3130343F480130A
:1002D00001FB024400FB034E840A970A44EA81545E
:1002E00047EA8357A4FB076802958D0A05FB07853B
:1002F0004FEA932C04FB0C542705029D4FEA065845
:1003000047EA1637B5EB08056EEB070C870E920E21
:1003100047EA811742EA8312A7FB0201B6EB0B0101
:1003200064EB00042B0D43EA0C335E1844EB1C50C5
:10033000DA465146E7FB0201C5F313044FEA0B33DB
:1003400043EA14534FEA0432019C43EA0603A4F142
:100350000C040294009CCDE900B400F09EF803B0B8
:10036000BDE8F08F00200146F9E70EB540F23341B9
:1003700002910021CDE900110A460B4600F08DF8EC
:1003800003B000BDC1F30A5210B5C1F3130140F22E
:10039000FF3341F480119A4201DA002010BD40F28F
:1003A00033439A42A2F2334203DC5242FFF7DCFEAF
:1003B00010BD904010BD30B50B46014600202022F4
:1003C000012409E021FA02F59D4205D303FA02F562
:1003D000491B04FA02F52844151EA2F10102F1DCC2
:1003E00030BD0000014900F003B80000E003002028
:1003F00010B500683C22B0FBF2F302FB1303B0FB24
:10040000F2F00B60B0FBF2F302FB1303B0FBF2F06F
:1004100018224B60B0FBF2F302FB1303B0FBF2F0C7
:10042000021D8B600723B2FBF3F403FB1422800050
:1004300040F2B55300F66C308A61B0FBF3F2B0FBCA
:10044000F3F403FB1400443280084A61C8613B287E
:1004500002D3920700D0401C0022074C13460A61C9
:10046000E25C824203D8801A5B1C0B61F8E7401CF7
:10047000C860084610BD000000B5000810B5141E85
:1004800073F1000408DA401C41F1000192185B414D
:100490001A4301D120F0010010BD2DE9F04D924624
:1004A0009B4611B1B1FA81F202E0B0FA80F220323B
:1004B000904600F053F804460F4640EA0A0041EA2D
:1004C0000B0153465A46084313D0114653EA010024
:1004D00019D0C8F140025046FFF746FE05460E46C9
:1004E00050465946424600F039F8084305D00120ED
:1004F00004E020463946BDE8F08D0020054346EA79
:10050000E0762C4337430A986305E40AA0EB080021
:100510000022FD0A44EA47540A3002D50020014671
:10052000E9E7010510196941DDE90845001969414C
:10053000BDE8F04DA2E70000064C074D06E0E0687C
:1005400040F0010394E8070098471034AC42F6D31A
:10055000FFF7F2FD0CB500082CB50008202A04DBDB
:10056000203A00FA02F1002070479140C2F12003C6
:1005700020FA03F3194390407047000010B5024879
:1005800000F01BFA10BD0000A800002070B5044662
:1005900000252068806800F0010018B3206880689A
:1005A00020F001002168886001F0D8F9054613E0C9
:1005B00001F0D4F9401B02280ED92068806800F0B1
:1005C000010048B1A06A40F01000A062E06A40F06B
:1005D0000100E062012070BD2068806800F0010029
:1005E0000028E5D10020F6E770B505466C6AA06AE0
:1005F00000F05000E0B9A06A40F40070A0622068EA
:10060000806800F46020B0F5602F0DD1207B58B9D0
:10061000A06A20F48070A062A06A00F4805018B92B
:10062000A06A40F00100A062204600F0C3F903E098
:10063000206A016B2846884770BD70B505466C6A14
:10064000A06A40F04000A062E06A40F00400E0626E
:10065000204600F0B1F970BD70B50446656A2846C1
:1006600000F0A9F970BD000038B50446002500204F
:1006700000902068806800F0010078BB20688068E6
:1006800040F0010021688860194800681949B0FBF2
:10069000F1F0009002E00098401E009000980028C1
:1006A000F9D101F05BF9054619E001F057F9401B5B
:1006B000022814D92068806800F0010078B9A06A87
:1006C00040F01000A062E06A40F00100E06200BF6C
:1006D000002084F8240000BF012038BD05E0206818
:1006E000806800F001000028DFD00020F5E700005E
:1006F000A400002040420F0000BFFEE710B50248F2
:1007000000F0B6FC10BD0000DC02002010B502486D
:1007100000F0AEFC10BD00009802002010B50248A9
:1007200000F0A6FC10BD0000D800002030B590F805
:1007300040500124AC40C56B6C6004686360446841
:10074000102C04D10468A2600468E16003E004682E
:10075000A1600468E26030BD704772B600BFFEE77A
:1007600070B50446B3F5804F13D1D1E9000540EAD6
:1007700005108D6840EA05208D6928438D8940EA7F
:10078000054054F82250064E3540284344F82200D4
:1007900003E06FF0704044F82200002070BD0000BC
:1007A0000000F0CF70B50246086852F8200020F033
:1007B00001000E6842F826008868082801D140230D
:1007C00000E00023486818438E683043CE68304309
:1007D0000E6930434E693043CE6930430E6A304370
:1007E0004E6A30438E6A3043CE6A30430E6B40EA25
:1007F000060488690443486B0443074D45F480654B
:1008000045F4E025086852F82000A84320430E680C
:1008100042F82600002070BD7FFB080010B503469B
:10082000D1E9000440EA04108C6840EA04208C8975
:1008300040EA0444088A401E44EA0054087D801EB1
:1008400044EA00608C692043541C43F824000020D3
:1008500010BD704738B5024600230020009000BF4D
:1008600092F82400012801D1022038BD012082F82D
:10087000240000BF4868072812D21068406B0C792A
:10088000641E04EB84051F24AC40A0430D796D1E4B
:1008900005EB85050C68AC4020431468606327E0D5
:1008A00048680D2812D21068006B0C79E41F04EB25
:1008B00084051F24AC40A0430D79ED1F05EB850591
:1008C0000C68AC4020431468206311E01068C06AD3
:1008D0000C790D3C04EB84051F24AC40A0430D793A
:1008E0000D3D05EB85050C68AC4020431468E062C3
:1008F00008680A2812D31068C0680C780A3C04EB18
:1009000044050724AC40A0430D780A3D05EB45059E
:100910008C68AC4020431468E0600FE01068006908
:100920000C7804EB44050724AC40A0430D7805EB9C
:1009300045058C68AC402043146820610868102885
:1009400002D00868112827D1174C1068A0421ED188
:100950001068806800F40000F0B91068806840F406
:1009600000001468A0600868102815D10F480068BE
:100970000F4CB0FBF4F000EB80004000009002E070
:100980000098401E009000980028F9D104E0906A79
:1009900040F020009062012300BF002082F8240074
:1009A00000BF184661E7000000240140A4000020B9
:1009B00040420F0070477047704770B5044620688A
:1009C00005682068466806F0200020282DD105F033
:1009D0000200022829D1A06A00F0100018B9A06A0C
:1009E00040F40070A0622068806800F46020B0F5D8
:1009F000602F13D1207B88B92068406820F0200048
:100A000021684860A06A20F48070A062A06A00F4A7
:100A1000805018B9A06A40F00100A0622046FFF79C
:100A2000C9FF6FF012002168086006F0800080287E
:100A300039D105F00400042835D1A06A00F0100077
:100A400018B9A06A40F40050A0622068806800F4E1
:100A5000E040B0F5E04F0DD02068406800F48060C1
:100A6000D0B92068806800F46020B0F5602F13D101
:100A7000207B88B92068406820F0800021684860A9
:100A8000A06A20F48050A062A06A00F4807018B9B7
:100A9000A06A40F00100A0622046FFF7DAFE6FF086
:100AA0000C002168086006F0400040280DD105F0D8
:100AB000010050B1A06A40F48030A062204600F0EE
:100AC000B5F86FF001002168086070BD2DE9F041B4
:100AD0000446002700250026A84614B90120BDE8D9
:100AE000F081A06810B1207D00B100BFA06A30B9CC
:100AF0000020E06284F82400204600F099F82046A7
:100B0000FFF744FD0746A06A00F01000002873D1EB
:100B1000002F7ED1A06A20F4885040F00200A0622D
:100B20003F4AD4E90001904208D1E069B0F5402F76
:100B300002D14FF4002002E0E06900E0E0690143E7
:100B4000207B41EA40000643A068B0F5807F02D0D8
:100B5000A068012802D14FF4807000E00020054316
:100B6000207D012811D1207B38B9A069401E4FF4A7
:100B7000006141EA4030054307E0A06A40F02000F0
:100B8000A062E06A40F00100E0622068406820F462
:100B900069402843216848602068806821490840EE
:100BA000304321688860A068B0F5807F02D0A068DB
:100BB000012802D14FF4807000E00020B0F5807F62
:100BC00003D1208A401E4FEA00582068C06A20F4F2
:100BD000700040EA08002168C862206880681249F5
:100BE0000840B04209D10020E062A06A20F0020073
:100BF00040F00100A06211E00BE0A06A20F00200CA
:100C000040F01000A062E06A40F00100E0620127BD
:100C100004E0A06A40F01000A062012738465EE7B9
:100C2000003C0140FDF7E1FFFE0E1FFF7047000092
:100C300010B586B004460020029003900490059001
:100C400026492068884246D100BF2548806940F483
:100C50000040234988610846806900F40040019003
:100C600000BF00BF00BF0846806940F08000886177
:100C70000846806900F08000019000BF00BF881521
:100C800002900320039002A9164800F0AFFC16481A
:100C900016490860002048600021144881608021C6
:100CA000C160490001618900416120218161002109
:100CB000C16100F0A9FB08B1FFF74FFD00BF0B4871
:100CC0002062446200BF002211462F2000F0CCFEBB
:100CD0002F2000F0B9FE06B010BD0000003C01401E
:100CE00000100240001C014058040240D8000020BF
:100CF0002DE9F04104460D46164600275749206865
:100D0000884203D056492068884205D15348001DC7
:100D1000006800F4702000E0002000287ED100BFB1
:100D200094F82400012802D10220BDE8F0810120BE
:100D300084F8240000BF2046FFF796FC0746002FEA
:100D40006DD1A06A40F60161884340F48070A062D2
:100D500043492068884209D14048001D006800F4DA
:100D6000702008B9012002E0002000E0012078B1E5
:100D7000A06A20F48010A0622068406800F48060BF
:100D800000B3A06A20F4005040F48050A06219E043
:100D9000A06A40F48010A06230492068884203D0E5
:100DA0002F492068884205D12C48001D006800F4B6
:100DB000806000E0002028B1A06A20F4005040F4D8
:100DC0008050A062A06A00F4805020B1E06A20F058
:100DD0000600E06201E00020E06200BF002084F82D
:100DE000240000BF1F48216A88621F48216AC86228
:100DF0001E48216A08636FF00200216808602068BD
:100E0000806840F4807021688860226802F14C019B
:100E100033462A46206A00F03DFB01E01AE014E068
:100E20002068806800F46020B0F5602F06D120684B
:100E3000806840F4A000216888600CE02068806829
:100E400040F480102168886005E000BF002084F82D
:100E5000240000E00127384667E700000024014035
:100E600000280140E9050008590600083B06000873
:100E70000146002291F82100022808D0042088634E
:100E800000BF002081F8200000BF012070470868E3
:100E9000006820F00E000B6818600868006820F0F9
:100EA00001000B68186091F8403001209840CB6B2E
:100EB0005860012081F8210000BF002081F8200047
:100EC00000BF1046E2E7000070B50446002594F824
:100ED0002100022803D00420A0630125C1E020687E
:100EE000006820F00E00216808602068006820F08B
:100EF0000100216808605C492068884252D95A493B
:100F000078392068884201D1012047E05649643988
:100F10002068884201D1102040E0534950392068B0
:100F2000884201D1801539E04F493C392068884218
:100F300001D1801432E04C4928392068884202D11E
:100F40004FF480302AE0484914392068884202D1A1
:100F50004FF4801022E044492068884201D14004C7
:100F60001CE042492068884201D1012016E03F4937
:100F700014312068884201D110200FE03B4928310C
:100F80002068884201D1801508E038493C3120684A
:100F9000884201D1801401E04FF480303349091FA9
:100FA000086051E0304978392068884201D1012039
:100FB00047E02D4964392068884201D1102040E083
:100FC000294950392068884201D1801539E02649E5
:100FD0003C392068884201D1801432E02249283906
:100FE0002068884202D14FF480302AE01E4914392B
:100FF0002068884202D14FF4801022E01A4920680C
:10100000884201D140041CE018492068884201D17F
:10101000012016E0154914312068884201D11020C2
:101020000FE0124928312068884201D1801508E07C
:101030000E493C312068884201D1801401E04FF410
:101040008030094980394860012084F8210000BFC0
:10105000002084F8200000BF606B10B12046616B57
:101060008847284670BD0000800002400804024006
:1010700070B50446E06B05682068066894F8401077
:10108000042088402840002875D006F0040000287D
:10109000FAD02068006800F0200028B920680068B5
:1010A00020F0040021680860D5492068884254D99E
:1010B000D34978392068884201D1042049E0D049D9
:1010C00064392068884201D1402042E0CC4950393F
:1010D0002068884201D100153BE0C9493C392068AD
:1010E000884202D14FF4804033E0C5492839206856
:1010F000884202D14FF480202BE0C1491439206886
:10110000884202D14FF4800023E0BD492068884224
:1011100001D1C0041DE0BB492068884201D10420F0
:1011200017E0B84914312068884201D1402010E00E
:10113000B44928312068884201D1001509E0B1493D
:101140003C312068884202D14FF4804001E04FF4E6
:101150008020AC49091F086054E0A949783920680B
:10116000884201D104204AE0A549643920688842B8
:1011700002D1402043E04CE0A14950392068884228
:1011800001D100153BE09E493C392068884202D1DC
:101190004FF4804033E09A4928392068884202D1D0
:1011A0004FF480202BE0964914392068884202D100
:1011B0004FF4800023E092492068884201D1C004A6
:1011C0001DE090492068884201D1042017E08D4934
:1011D00014312068884201D1402010E0894928312B
:1011E0002068884201D1001509E086493C31206819
:1011F000884202D14FF4804001E04FF480208049C2
:1012000080394860E06A002802D02046E16A8847B9
:10121000F4E094F84010022088402840002871D063
:1012200006F002000028FAD02068006800F02000D4
:1012300040B92068006820F00A0021680860012099
:1012400084F821006E492068884254D96C49783965
:101250002068884201D1022049E069496439206848
:10126000884201D1202042E06549503920688842F7
:1012700001D140153BE062493C392068884202D1E7
:101280004FF4005033E05E4928392068884202D18B
:101290004FF400302BE05A4914392068884202D1BB
:1012A0004FF4001023E056492068884201D18004A1
:1012B0001DE054492068884201D1022017E05149BD
:1012C00014312068884201D1202010E04D49283196
:1012D0002068884201D1401509E04A493C31206824
:1012E000884202D14FF4005001E04FF400304549EC
:1012F000091F086054E0424978392068884202D1C9
:1013000002204AE057E03E4964392068884201D112
:10131000202042E03A4950392068884201D14015E6
:101320003BE037493C392068884202D14FF40050F5
:1013300033E0334928392068884202D14FF4003025
:101340002BE02F4914392068884202D14FF4001055
:1013500023E02B492068884201D180041DE02949FF
:101360002068884201D1022017E026491431206804
:10137000884201D1202010E022492831206888428B
:1013800001D1401509E01F493C312068884202D153
:101390004FF4005001E04FF40030194980394860A3
:1013A00000BF002084F8200000BFA06A30B32046B0
:1013B000A16A884722E094F840100820884028401D
:1013C000E0B106F00800C8B12068006820F00E0007
:1013D0002168086094F8401001208840E16B486063
:1013E0000120A06384F8210000BF002084F82000C1
:1013F00000BF206B10B12046216B884770BD0000F4
:1014000080000240080402400146002209B9012080
:1014100070471E4B086898420BD21D4B0868C01AD3
:101420001423B0FBF3F08000086419480838C8633F
:101430000AE0164B0868C01A1423B0FBF3F08000D2
:10144000086412480838C863022081F8210008683F
:10145000026843F6F0708243D1E901031843CB6878
:1014600018430B6918434B6918438B691843CB69C0
:10147000184302430868026000208863012081F855
:101480002100002081F8200000BFC1E708040240CD
:10149000080002402DE9F04104460D4616461F465D
:1014A0004FF0000800BF94F82000012802D102206C
:1014B000BDE8F081012084F8200000BF94F82100ED
:1014C00001282CD1022084F821000020A06320688C
:1014D000006820F00100216808603B46324629463A
:1014E0002046FFF723F9E06A30B12068006840F039
:1014F0000E00216808600BE02068006820F00400FE
:10150000216808602068006840F00A0021680860CF
:101510002068006840F001002168086006E000BF14
:10152000002084F8200000BF4FF002084046BFE7CB
:1015300070B5044600F012FA06462546681C10B144
:1015400004480078054400BF00F008FA801BA84258
:10155000FAD370BDA000002000B585B00020019036
:101560000290039004901C48006808B105B000BDCB
:1015700001201949086000BF1848406940F4807094
:10158000164948610846406900F48070009000BF29
:1015900000BF41F20100019002200290032004905C
:1015A00001A90F4800F022F84FF680700190022048
:1015B00002900320049001A90A4800F017F84CF2A9
:1015C00033700190022002900320049001A9064884
:1015D00000F00CF800BFC9E708000020001002402E
:1015E0000020014000180140001401402DE9F84797
:1015F000024600239C467BE14FF0010808FA03F401
:10160000D1F8008008EA0400A0427DD1DFF8F4A2FE
:10161000D1F80480A8EB0A09D0453AD014DCB8F11F
:10162000030F50D009DCB8F1000F31D0B8F1010F31
:101630001CD0B8F1020F49D120E0B8F1110F18D039
:10164000B8F1120F42D11EE0B9F5881F25D006DC93
:10165000B9F5803F20D0B9F5801F37D11AE0B9F530
:10166000001F18D0B9F5041F30D117E0D1F80CC015
:101670002DE0D1F80C8008F1040C28E0D1F80C80A2
:1016800008F1080C23E0D1F80C8008F10C0C1EE0E6
:1016900000BF00BF00BF00BF00BF00BFD1F808807F
:1016A000B8F1000F02D14FF0040C0BE0D1F8088024
:1016B000B8F1010F03D14FF0080C146102E04FF0B4
:1016C000080C546103E04FF0000C00E000BF00BFC5
:1016D000FF2801D8904601E002F104084646FF28A1
:1016E00002D84FEA830803E0A3F108084FEA88080C
:1016F0004746D6F800804FF00F0909FA07F928EAA3
:1017000009080CFA07F900E07AE048EA0908C6F887
:101710000080D1F8048008F08058B8F1805F6FD164
:1017200000BFDFF8E481D8F8188048F00108DFF83E
:10173000D891C9F81880C846D8F8188008F0010870
:10174000CDF8008000BF00BF4FEAB9384FEA9309D7
:1017500058F829504FEA83784FEA18794FF00F086C
:1017600008FA09F825EA0805DFF8A081424502D108
:101770004FF0000824E0DFF89881424502D14FF095
:1017800001081DE0DFF88C81424502D14FF00208CC
:1017900016E0DFF88481424502D14FF003080FE0E4
:1017A000DFF87881424502D14FF0040808E0DFF805
:1017B0007081424502D14FF0050801E04FF0060864
:1017C0004FEA83794FEA197908FA09F848EA0505DA
:1017D000DFF850814FEA930948F82950D1F8048086
:1017E00008F48018B8F5801F0BD1DFF83C81D8F8D9
:1017F000008048EA0008DFF83091C9F800800AE06C
:1018000075E0DFF82481D8F8008028EA0008DFF8C6
:101810001891C9F80080D1F8048008F40018B8F5D0
:10182000001F0ED1DFF8008108F10408D8F800800D
:1018300048EA0008DFF8F09009F10409C9F80080CF
:101840000DE0DFF8E48008F10408D8F8008028EA09
:101850000008DFF8D49009F10409C9F80080D1F834
:10186000048008F40038B8F5003F0ED1DFF8B880E6
:10187000A8F10408D8F8008048EA0008DFF8A8902A
:10188000A9F10409C9F800800DE0DFF89C80A8F1F7
:101890000408D8F8008028EA0008DFF88C90A9F145
:1018A0000409C9F80080D1F8048008F48038B8F53C
:1018B000803F0ED1DFF87080A8F10808D8F80080CA
:1018C00048EA0008DFF86090A9F10809C9F800802B
:1018D0000DE0DFF85480A8F10808D8F8008028EA65
:1018E0000008DFF84490A9F10809C9F800805B1CE2
:1018F000D1F8008028FA03F8B8F1000F7FF47CAE2D
:10190000BDE8F887000011100010024000080140F7
:10191000000C01400010014000140140001801407B
:10192000001C014008000140080401400246936881
:101930000B400BB1012000E00020704710B5C268D9
:1019400021EA020302EA010443EA0443036110BDF1
:101950000AB1016101E00B040361704701480068AE
:101960007047000098000020034800680349097888
:10197000084401490860704798000020A00000203A
:1019800010B50848006840F01000064908600320C0
:1019900000F0A8F80F2000F007F800F02BF8002066
:1019A00010BD00000020024070B504460E480078CB
:1019B0004FF47A71B1FBF0F00C490968B1FBF0F516
:1019C000284600F06BFE08B1012070BD102C07D234
:1019D00000222146501E00F047F80548046001E04F
:1019E0000120F2E70020F0E7A0000020A400002082
:1019F0009C00002008B500BF1148806940F001003C
:101A00000F4988610846806900F00100009000BF1E
:101A100000BF00BF0846C06940F08050C86108465A
:101A2000C06900F08050009000BF00BF00BF0549B2
:101A3000486820F0E06040F00070486000BF08BDDA
:101A4000001002400000014001460846002809DB62
:101A500000F01F0301229A4043099B0003F1E02399
:101A6000C3F8002100BF70472DE9F05F80460D46A6
:101A70001646002702F05AFC074639462A463346E6
:101A800001F00700C0F1070ABAF1040F02D94FF0C4
:101A9000040A01E0C0F1070AD14600F1040ABAF1D4
:101AA000070F02D24FF0000A01E0A0F1030AD4466A
:101AB0004FF0010A0AFA09FAAAF1010A0AEA020A2F
:101AC0000AFA0CFA4FF0010B0BFA0CFBABF1010B0D
:101AD0000BEA030B4AEA0B042146404602F02EFCB7
:101AE000BDE8F09F00BF00F00702064B19684FF6F3
:101AF000FF031940044B0B4343EA0221014B1960D9
:101B000000BF70470CED00E00000FA05012001491C
:101B10000862704700000E422DE9F04706464FF07C
:101B20000008002500270024A146042E37D004DC3D
:101B3000012E3CD0022E6CD160E0082E33D0102E46
:101B400067D136484468006800F0807008B33448B4
:101B5000C4F38341475C04F4803078B12F48406877
:101B6000C0F340402F4911F8008004F4803040B1A8
:101B70002D48B0FBF8F000FB07F502E02B4807FB0F
:101B800000F52648406800F48000B0F5800F01D1D0
:101B9000A94603E068000321B0FBF1F93AE000F048
:101BA000CBF9814636E000F0C7F9814632E01B48A8
:101BB000046A04F44070B0F5807F05D104F002009F
:101BC00010B14FF4004918E004F44070B0F5007F04
:101BD00007D11248406A00F0020010B149F64049AE
:101BE0000BE004F44070B0F5407F06D10B4800686C
:101BF00000F4003008B14FF224490BE000F08CF9FA
:101C000006494968C1F38131491C4900B0FBF1F92B
:101C100000E000BF00BF4846BDE8F087001002406A
:101C2000CAB40008DAB4000800127A0000093D00C6
:101C3000F8B5044600260025207800F001000028B1
:101C40006BD000274348C06900F0805070B900BFD6
:101C50004048C06940F080503E49C8610846C069AC
:101C600000F08050009000BF00BF01273A48006894
:101C700000F48070B0B93848006840F4807036498C
:101C80000860FFF76BFE064606E0FFF767FE801B65
:101C9000642801D90320F8BD2F48006800F4807043
:101CA0000028F2D02B48006A00F440752DB3A088BC
:101CB00000F44070A84220D02648006A20F4407505
:101CC000012026490860002008602248056205F0CE
:101CD000010090B1FFF742FE064608E0FFF73EFE26
:101CE000801B41F28831884201D90320D3E719488B
:101CF000006A00F002000028F0D01648006A20F4C4
:101D000040706168084313490862012F04D10846F6
:101D1000C06920F08050C86100BF207800F0020048
:101D2000022807D10B48406820F44040A1680843CE
:101D300008494860207800F01000102807D10548B5
:101D4000406820F48000616908430249486000202F
:101D5000A1E7000000100240007000404004424231
:101D600070B504460D460CB9012070BD5A48006894
:101D700000F00700A8420ED25748006820F0070084
:101D80002843554908600846006800F00700A8424B
:101D900001D00120E9E7207800F0020002281DD1DF
:101DA000207800F00400042805D14C48406840F435
:101DB000E0604A494860207800F00800082805D112
:101DC0004648406840F46050444948604348406891
:101DD00020F0F000A168084340494860207800F0F6
:101DE000010078B36068012806D13C48006800F41F
:101DF000003090B90120B8E76068022806D1374862
:101E0000006800F0007040B90120AEE73348006878
:101E100000F0020008B90120A7E73048406820F030
:101E20000300616808432D494860FFF797FD0646A7
:101E300009E0FFF793FD801B41F28831884202D907
:101E4000032092E707E02548406800F00C00616835
:101E5000B0EB810FEDD12048006800F00700A842E8
:101E60000ED91D48006820F0070028431A49086071
:101E70000846006800F00700A84201D0012074E77E
:101E8000207800F00400042807D11448406820F4AA
:101E9000E060E168084311494860207800F00800DC
:101EA000082808D10D48406820F46050216940EAB4
:101EB000C1000A49486000F03FF808494968C1F389
:101EC0000311074A515CC84006490860064800688B
:101ED000FFF76AFD002048E70020024000100240A2
:101EE000DCB40008A40000209C0000200148006829
:101EF00070470000A400002000B5FFF7F7FF044979
:101F00004968C1F30221034A515CC84000BD00008A
:101F100000100240ECB4000800B5FFF7E7FF0449E9
:101F20004968C1F3C221034A515CC84000BD0000AA
:101F300000100240ECB4000870B50021002200241B
:101F400000230020134D696801F00C05F5B1042D44
:101F500002D0082D19D101E00F4819E00F4DC1F34F
:101F60008346AB5D01F4803555B10A4D6D68C5F30C
:101F700040450B4E725D084D5D43B5FBF2F402E047
:101F8000084D03FB05F4204602E000BF024800BFF5
:101F900000BF70BD0010024000127A00B8B4000803
:101FA000C8B4000800093D00F8B504460CB901208A
:101FB000F8BD207800F00100002878D0F84840688B
:101FC00000F00C0004280CD0F548406800F00C002C
:101FD000082811D1F248406800F48030B0F5803F05
:101FE0000AD1EF48006800F4003000285FD0606834
:101FF00000285CD10120DBE700BF6068B0F5803FBE
:1020000006D1E748006840F48030E549086028E0E0
:10201000606858B9E248006820F48030E049086000
:102020000846006820F4802008601AE06068B0F577
:10203000A02F0BD1DA48006840F48020D84908600E
:102040000846006840F4803008600AE0D448006820
:1020500020F48030D24908600846006820F48020CF
:10206000086000BF606888B1FFF778FC054606E0AD
:10207000FFF774FC401B642801D9032098E7C84887
:10208000006800F400300028F2D010E0FFF766FC92
:10209000054606E0FFF762FC401B642801D90320D7
:1020A00086E7BF48006800F400300028F2D12078AD
:1020B00000F00200022857D1B948406800F00C0037
:1020C00050B1B748406800F00C00082818D1B44857
:1020D000406800F4803098B9B148006800F0020010
:1020E00020B12069012801D0012061E7AC480068D7
:1020F00020F0F800616940EAC100A949086033E0B6
:102100002069E8B10120A7490860FFF727FC0546D0
:1021100006E0FFF723FC401B022801D9032047E714
:102120009F48006800F002000028F2D09C48006838
:1021300020F0F800616940EAC1009949086013E0A5
:10214000002098490860FFF709FC054606E0FFF704
:1021500005FC401B022801D9032029E790480068AC
:1021600000F002000028F2D1207800F008000828D2
:102170002DD1A069B8B101208B490860FFF7EEFBB3
:10218000054606E0FFF7EAFB401B022801D90320C1
:102190000EE78348406A00F002000028F2D00120D8
:1021A00001F058FC13E000207F490860FFF7D6FBE0
:1021B000054606E0FFF7D2FB401B022801D90320A9
:1021C000F6E67748406A00F002000028F2D1207855
:1021D00000F00400042873D100277148C06900F0A2
:1021E000805070B900BF6E48C06940F080506C49A3
:1021F000C8610846C06900F08050009000BF00BF71
:1022000001276A48006800F48070B0B96748006828
:1022100040F4807065490860FFF7A0FB054606E0C2
:10222000FFF79CFB401B642801D90320C0E65F48F0
:10223000006800F480700028F2D000BFE068012838
:1022400006D15748006A40F001005549086227E06E
:10225000E06858B95248006A20F00100504908620D
:102260000846006A20F00400086219E0E0680528CA
:102270000BD14B48006A40F0040049490862084607
:10228000006A40F0010008620AE04548006A20F058
:102290000100434908620846006A20F00400086211
:1022A00000BFE068A0B1FFF759FB054609E0FFF762
:1022B00055FB401B41F28831884202D9032077E662
:1022C00022E03748006A00F002000028EFD012E058
:1022D000FFF744FB054608E0FFF740FB401B41F2D7
:1022E0008831884201D9032062E62D48006A00F057
:1022F00002000028F0D1012F05D12948C06920F043
:1023000080502749C86100BFE069C8B324484068CD
:1023100000F00C00082860D0E069022848D10020B5
:1023200020490866FFF71AFB054606E0FFF716FB93
:10233000401B022801D903203AE61948006800F042
:1023400000700028F2D1206AB0F5803F07D1144810
:10235000406820F40030A168084311494860D4E97E
:10236000080108430E49496821F4741108430C49D7
:10237000486001200B490866FFF7F0FA054607E0C0
:102380003DE0FFF7EBFA401B022801D903200FE6DE
:102390000348006800F000700028F2D02FE0000031
:1023A000001002400000424280044242007000409F
:1023B000002014490866FFF7D1FA054606E0FFF74A
:1023C000CDFA401B022801D90320F1E50E48006830
:1023D00000F000700028F2D111E0E069012800D17E
:1023E000E6E50948466806F48031206A814204D156
:1023F00006F47011606A814201D00120D8E5002006
:10240000D6E50000000042420010024010B503462D
:1024100000220020024A02EB81021468A0B210BD23
:10242000006C004010B503460020034800EB81001B
:1024300094B2046010BD0000006C0040704770470B
:1024400010B504462068006800F00100F0B1206873
:10245000406800F00100C8B120684068C0F3800007
:1024600048B12046FFF7EBFF6FF004002168486099
:102470000420607404E02046FFF7E0FF0120607450
:102480002068406820F001002168486010BD704756
:1024900010B5044620680068C0F3400068B12068A9
:1024A0004068C0F3400040B12046FFF7F0FF2068CD
:1024B000406820F00200216848604FF40030024973
:1024C00008600120607410BD1404014070B504461A
:1024D00000250CB9012070BD607C20B9002020745B
:1024E000204600F053F802206074204600F07EF889
:1024F00018B1042060740120EDE7204601F0E3FAF2
:1025000018B1042060740120E5E72068406820F0DD
:10251000070021684860A06828B11B48006820F0C7
:102520000100194908601848001F006820F4607015
:10253000A16808431449091F08606068401C08B17D
:10254000656809E00120FFF7E7FA05461DB9042098
:1025500060740120BFE76D1EC5F3034021688860E9
:10256000A8B22168C860204601F0E7FA18B104203B
:1025700060740120AFE70021E17301216173A17351
:10258000012060740020A6E7306C004038B5044696
:1025900013492068884222D1FFF7B8FA00BF1148DA
:1025A000C06940F000600F49C8610846C06900F08A
:1025B0000060009000BF00BF01200B4908600022AE
:1025C00011460320FFF750FA0320FFF73DFA0022DF
:1025D00011462920FFF748FA2920FFF735FA38BDC0
:1025E00000280040001002403C04424270B50446FE
:1025F00000250CB9012070BD2068406820F008005B
:1026000021684860FFF7AAF9054607E0FFF7A6F939
:10261000401BB0F57A7F01D90320ECE720684068C1
:1026200000F008000028F1D00020E4E770B504466F
:102630000E4615461CB1A069B0F5807F01D101207E
:1026400070BD94F8410028B9002084F8400020466D
:1026500000F01FF804F108012068FEF7A3F83146E6
:10266000A2682068FEF7DAF82946236BD4E9010254
:10267000FEF776F8A168206850F8210040F00100CC
:10268000A268216841F82200012084F8410000205E
:10269000D6E710B50446FEF75FFF10BD70B50446DF
:1026A0002546681EB0F1807F01D301200FE0681E2F
:1026B0004FF0E02148610F214FF0FF3001F03EFE66
:1026C00000204FF0E021886107200861002070BDE4
:1026D0007047704730B502460B4600BF92F83C0089
:1026E000012801D1022030BD012082F83C0000BF4A
:1026F000022082F83D00106844681068816824F068
:1027000070041868044310684460144D1068A842AF
:1027100013D0134D1068A8420FD01068B0F1804F4D
:102720000BD0104D1068A84207D00F4D1068A8427A
:1027300003D00E4D1068A84205D121F080015868E1
:10274000014310688160012082F83D0000BF002035
:1027500082F83C0000BF00BFC5E70000002C01402C
:10276000003401400004004000080040000C00401C
:1027700010B504460CB9012010BD94F83D0028B9ED
:10278000002084F83C00204600F026F8022084F85F
:102790003D00211D206801F07BFA012084F84600ED
:1027A00000BF84F83E0001213F2001554020015523
:1027B0004120015500BF00BF012084F842004320A2
:1027C0000155442001554520015500BF012084F8E2
:1027D0003D000020D0E7000038B504462068B0F185
:1027E000804F16D100BF1448C06940F00100124963
:1027F000C8610846C06900F00100009000BF00BF3A
:10280000002203211C20FFF72FF91C20FFF71CF9E1
:1028100011E00A49206888420DD100BF0648C0690E
:1028200040F020000449C8610846C06900F020005B
:10283000009000BF00BF38BD0010024000140040EF
:102840002DE9F04104460D46002700BF94F83C00F6
:10285000012802D10220BDE8F081012084F83C006B
:1028600000BF022084F83D002068866826F07706C5
:1028700026F47F46206886602868502833D00CDC18
:10288000202850D004DC00284BD0102851D149E03A
:10289000302849D040284CD139E060282DD070280C
:1028A00007D0B0F5805F03D0B0F5005F41D10DE0F7
:1028B00041E0D5E902136A68206801F03FFA206818
:1028C000866846F077062068866034E0D5E9021312
:1028D0006A68206801F032FA2068806840F480401D
:1028E0002168886027E0EA686968206801F016FBC3
:1028F0005021206801F02DFA1DE0EA68696820681F
:1029000001F01FFB6021206801F023FA13E0EA6860
:102910006968206801F002FB4021206801F019FA83
:1029200009E000BF00BF00BF2968206801F011FA6C
:1029300001E0012700BF00BF012084F83D0000BF77
:10294000002084F83C0000BF384684E7704770B52B
:1029500004462068C5682068066906F0020002285F
:1029600019D105F00200022815D1401F2168086125
:10297000012020772068806900F0030018B120460C
:10298000FFF7E4FF05E0204600F0C4F8204600F021
:102990008FF90020207706F00400042819D105F0F3
:1029A0000400042815D1C043216808610220207763
:1029B0002068806900F4407018B12046FFF7C6FF18
:1029C00005E0204600F0A6F8204600F071F900204E
:1029D000207706F00800082819D105F0080008281B
:1029E00015D1C04321680861042020772068C069A0
:1029F00000F0030018B12046FFF7A8FF05E02046CD
:102A000000F088F8204600F053F90020207706F007
:102A10001000102819D105F01000102815D1C0435E
:102A200021680861082020772068C06900F44070A0
:102A300018B12046FFF78AFF05E0204600F06AF84B
:102A4000204600F035F90020207706F0010048B15B
:102A500005F0010030B16FF00100216808612046E7
:102A600000F027F906F08000802809D105F08000E9
:102A7000802805D1C043216808612046FFF728FE61
:102A800006F04000402809D105F04000402805D15B
:102A9000C04321680861204600F00CF906F02000D0
:102AA000202809D105F02000202805D1C043216845
:102AB00008612046FFF70DFE70BD000010B586B01E
:102AC0000446002002900390049005900E4920686F
:102AD000884216D100BF0D48806940F008000B49BC
:102AE00088610846806900F00800019000BF00BFBF
:102AF0008815029002200390059002A90448FEF771
:102B000075FD06B010BD0000000800400010024036
:102B1000000C014070472DE9F04104460D46164671
:102B2000002700BF94F83C00012802D10220BDE834
:102B3000F081012084F83C0000BF36B1042E1BD088
:102B4000082E31D00C2E5ED145E02946206801F0D8
:102B500009F92068806940F00800216888612068D0
:102B6000806920F0040021688861206880692969F3
:102B700008432168886148E02946206801F02AF965
:102B80002068806940F4006021688861206880695D
:102B900020F480602168886120688069296940EAA2
:102BA00001202168886130E02946206801F050F951
:102BB0002068C06940F008002168C8612068C069C9
:102BC00020F004002168C8612068C06929690843B1
:102BD0002168C86119E02946206801F075F920686C
:102BE000C06940F400602168C8612068C06920F4B1
:102BF00080602168C8612068C069296940EA0120B5
:102C00002168C86101E0012700BF00BF00BF0020AC
:102C100084F83C0000BF384689E710B504460CB97B
:102C2000012010BD94F83D0028B9002084F83C0034
:102C3000204600F025F8022084F83D00211D206880
:102C400001F026F8012084F8460000BF84F83E0019
:102C500001213F200155402001554120015500BF71
:102C600000BF012084F84200432001554420015553
:102C70004520015500BF012084F83D000020D0E729
:102C800008B5094A016891420DD100BF0749C969D9
:102C900041F00401054AD1611146C96901F00401FE
:102CA000009100BF00BF08BD0008004000100240B6
:102CB0007047704770477047704700002DE9F84F24
:102CC0000446206805682068C668206847694FF098
:102CD0000009CA4605F00F09B9F1000F0AD105F045
:102CE000200038B106F0200020B1204601F08DF917
:102CF000BDE8F88FB9F1000F7BD007F0010018B9DB
:102D000006F49070002874D005F0010030B106F48C
:102D1000807018B1606C40F00100606405F0040040
:102D200030B107F0010018B1606C40F0020060643F
:102D300005F0020030B107F0010018B1606C40F0FE
:102D40000400606405F0080048B106F0200010B9E6
:102D500007F0010018B1606C40F008006064606C1E
:102D6000002845D005F0200028B106F0200010B161
:102D7000204601F04AF920684069C0F3801A606C6F
:102D800000F0080010B9BAF1000F2CD0204601F075
:102D9000F6F82068406900F0400000B300BF00BFB3
:102DA0002168143151E8001F21F0400021681431DE
:102DB00041E80002002AF3D100BFE06B50B1774830
:102DC000E16B4863E06BFEF77FF888B1E06B416B25
:102DD00088470DE02046FFF76FFF09E009E0204635
:102DE000FFF76AFF04E02046FFF766FF00206064FB
:102DF0007EE7206B012877D105F01000002873D002
:102E000006F010000028FAD000BF002000902068D3
:102E10000068009020684068009000BF00BF2068F4
:102E2000406900F0400000285FD0E06B0068406817
:102E30001FFA80F8B8F1000F55D0A08D404552DD43
:102E4000A4F82E80E06B8069202843D000BF00BF2B
:102E500021680C3151E8001F21F4807021680C3189
:102E600041E80002002AF3D100BF00BF00BF216883
:102E7000143151E8001F21F001002168143141E8AC
:102E80000002002AF3D100BF00BF00BF2168143147
:102E900051E8001F21F040002168143141E8000290
:102EA000002AF3D100BF202084F8420000202063D4
:102EB00000BF00BF21680C3151E8001F21F0100055
:102EC00021680C3141E80002002AF3D100BFE06B19
:102ED000FDF7CEFF02206063A08DE28D801A81B2E3
:102EE0002046FFF7E8FE03E742E0A08DE18D401A9F
:102EF0001FFA80F8E08DD0B3B8F1000F37D000BFD3
:102F000000BF21680C3151E8001F21F49070216846
:102F10000C3141E80002002AF3D100BF00BF00BF1E
:102F20002168143151E8001F21F00100216814319B
:102F300041E80002002AF3D100BF202084F84200BB
:102F40000020206300BF00BF21680C3151E8001F42
:102F500021F0100021680C3141E80002002AF3D171
:102F600000BF0220606341462046FFF7A4FEBFE693
:102F700005F0800030B106F0800018B1204601F065
:102F800041F9B5E605F0400030B106F0400018B157
:102F9000204601F02AF8ABE600BFA9E66B3F000827
:102FA00010B504460CB9012010BDA06900B100E0C5
:102FB00000BF94F8410028B9002084F84000204662
:102FC00000F02AF8242084F841002068C06820F42A
:102FD00000502168C860204601F096F8206800691A
:102FE00020F49040216808612068406920F02A00A0
:102FF000216848612068C06840F400502168C860BA
:1030000000206064202084F8410084F84200002001
:10301000606300BFC8E7000010B586B0044600201A
:10302000029003900490059037492068884269D146
:1030300000BF3648806940F48040344988610846C2
:10304000806900F48040019000BF00BF00BF0846C7
:10305000806940F0040088610846806900F004003F
:10306000019000BF00BF481502900220039003208A
:10307000059002A92648FEF7B9FA4FF48060029045
:1030800000200390049002A92148FEF7AFFA2148DE
:10309000214908600020486000211F48816080218C
:1030A000C1600021016141618161C161FEF7ACF93C
:1030B00008B1FDF752FB00BF1748E063446200BF50
:1030C000144814381549086010204860002113483E
:1030D00081608021C1600021016141618161C16124
:1030E000FEF792F908B1FDF738FB00BF0B48A0636B
:1030F000446200BF002211462520FEF7B5FC2520C2
:10310000FEF7A2FC06B010BD0038014000100240DE
:10311000000801405800024098020020DC02002014
:1031200070472DE9F84F04460E46174699464FF072
:10313000000A94F84100202850D106B117B90120A7
:10314000BDE8F88F00206064212084F84100FEF77C
:1031500005FC8246A784E784A068B0F5805F04D1AF
:10316000206910B90025B04602E035464FF000084E
:103170001EE05346002280212046CDF8009001F049
:1031800071F820B1202084F841000320D8E745B928
:10319000B8F80000C0F308002168486008F1020890
:1031A00003E02878216848606D1CE08C401EE084B4
:1031B000E08C0028DDD15346002240212046CDF886
:1031C000009001F04FF820B1202084F84100032046
:1031D000B6E7202084F841000020B1E70220AFE7E5
:1031E000704700BFFEE7000008B5044800F0CAFCC5
:1031F00000906846FDF7F6F808BD00006401002065
:1032000010B58CB001211048FFF700F9044642F2D6
:103210003330844201D10CB010BD0B48FFF756F992
:1032200008B1FDF79AFA2C22084901A8FDF700F829
:1032300001A800F00DF842F2333201210248FFF7F5
:10324000F1F800BFE7E70000640100206C78000897
:1032500070B504462046FCF797FF0546294602480C
:1032600000F0AAFC70BD0000640100201CB5202104
:103270003448FEF763FB34A103C9CDE90001684679
:10328000FCF7FAFF84B24FF0FF332246694630481C
:10329000FFF747FF2F480078012851D12E480078CA
:1032A00006284CD2DFE800F0030F1B27333F2B48E2
:1032B0004069401E2949486108464069462801DAAC
:1032C000462048613BE025480069401E23490861CB
:1032D00008460069012801DA0B2008612FE01F4829
:1032E000C068401E1D49C8600846C068002801DC4F
:1032F0001F20C86023E019488068401E1749886075
:1033000008468068002801DA1720886017E0134813
:103310004068401E1149486008464068002801DAAC
:103320003B2048600BE00D480068401E0B490860D8
:1033300008460068002801DA3B20086000BF00BF93
:103340001CBD0000000C01404B455930000000003E
:10335000500200208600002087000020200300206B
:103360001CB520213148FEF7E9FA31A103C9CDE9A6
:1033700000016846FCF780FF84B24FF0FF3322461D
:1033800069462D48FFF7CDFE2C48007801284BD127
:103390002B480078062846D2DFE800F00309152103
:1033A0002D3928484069401C264948613BE02548A2
:1033B0000069401C23490861084600690B2801DDAB
:1033C000002008612FE01F48C068401C1D49C860EC
:1033D0000846C0681F2801DD0120C86023E01948A5
:1033E0008068401C1749886008468068172801DDFE
:1033F0000020886017E013484068401C114948606D
:10340000084640683B2801DD002048600BE00D487D
:103410000068401C0B490860084600683B2801DD35
:103420000020086000BF00BF1CBD00000018014064
:103430004B4559310000000050020020860000205A
:1034400087000020200300201CB520211C48FEF727
:1034500075FA20211B48FEF771FA1BA103C9CDE9BB
:1034600000016846FCF708FF84B24FF0FF332246A4
:1034700069461748FFF755FE1648007870B9FFF700
:10348000B3FE04462C2221461348FCF7D1FE00204F
:103490001249087001200F4908700FE00F480078AA
:1034A000052806D10C48FFF7D3FE00200949087013
:1034B00004E00A480078401C084908701CBD000060
:1034C000000C014000180140574B5F5550000000B0
:1034D00050020020860000202003002087000020EA
:1034E00010B501608280012484710024846004731B
:1034F000036110BD70B50446A1882068FEF716FA76
:1035000008B1012000E000200546A079A84203D0C0
:10351000A57100202073A0609DB9A06818B9FEF7BE
:103520001DFAA0600DE0207B58B9FEF717FAA168DC
:10353000401A0A2805D901202073206908B12069A2
:10354000804770BD0EB50020009001900290134896
:103550001349086000211248816001210173002194
:1035600001754FF46021C16100200D4948600121BF
:103570000B480161FDF7AAFA08B1FDF7EEF8062045
:103580000090012001900620029069460448FDF752
:1035900061F908B1FDF7E1F80EBD0000003C014003
:1035A000A800002008B500BF1948406940F001009C
:1035B000174948610846406900F00100009000BFCB
:1035C00000BF00BF0846406940F00200486108465D
:1035D000406900F00200009000BF00BF00221146C9
:1035E0000E20FEF741FA0E20FEF72EFA00221146B9
:1035F0000F20FEF739FA0F20FEF726FA00221146B7
:103600003B20FEF731FA3B20FEF71EFA08BD000012
:103610000010024000B58FB01C2108A8FCF721FE65
:103620001C2101A8FCF71DFE4FF020402349086033
:10363000234848600620886000212048C16001615D
:103640001021416100218161C161016241624FF439
:10365000805181620021C1624FF4804101630021E9
:1036600041638163062008900F2009901A200A9078
:1036700000200B9010200C9011200D9000200E9037
:10368000032001900F200290062003900F20049049
:1036900010200590112006900020079001AA08A98B
:1036A0000648FEF7C3FF08B1FDF757F80548C069A3
:1036B00040F480600349C8610FB000BD1C010020C8
:1036C000040100A00000014000B585B00020019079
:1036D00002900390049000BF4948806940F0400088
:1036E000474988610846806900F04000009000BFAB
:1036F00000BF00BF0846806940F01000886108469E
:10370000806900F01000009000BF00BF00BF0846B5
:10371000806940F0800088610846806900F0800080
:10372000009000BF00BF00BF0846806940F0040061
:1037300088610846806900F00400009000BF00BF67
:1037400000BF0846806940F008008861084680692B
:1037500000F00800009000BF00BF00BF084680696D
:1037600040F4807088610846806900F480700090A1
:1037700000BF00BF00BF0846806940F0200088619C
:103780000846806900F02000009000BF00BF0022C2
:1037900020211C48FEF7DCF8002221211A48FEF700
:1037A000D7F818200190002002900120039001A971
:1037B0001448FDF71BFF20200190012002900020FB
:1037C00003900220049001A90E48FDF70FFF01208D
:1037D0000190002002900220039001A90B48FDF700
:1037E00005FF21200190012002900020039002207B
:1037F000049001A90448FDF7F9FE05B000BD0000E2
:103800000010024000180140000C01400008014077
:103810000548064908604FF0FF3048604FF480715A
:1038200002488160704700000028004064010020C9
:1038300000B587B000200390049005900690019099
:1038400002904FF0804014490860472048600021F2
:103850001148816040F2E731C1600021016180219F
:103860008161FEF785FF08B1FCF777FF4FF48050C8
:10387000039003A90848FEF7E3FF08B1FCF76DFFCA
:1038800000200190029001A90348FEF723FF08B130
:10389000FCF763FF07B000BD7801002000B589B0D8
:1038A0000020079008901C216846FCF7DAFC1848B5
:1038B000184908604720486000211648816040F29E
:1038C000E731C160002101618161FFF7A6F908B10C
:1038D000FCF743FF00200790089007A90D48FEF76A
:1038E000F9FE08B1FCF739FF60200090002001903C
:1038F00002900490082269460648FFF70CF908B1C7
:10390000FCF72BFF0348FFF7D9F809B000BD000012
:1039100000080040C00100201CB50020009001906C
:103920000E480F4908604720486000210C4881601C
:1039300040F2E731C16000218161FEF719FF08B153
:10394000FCF70BFF00200090019069460448FEF749
:10395000C1FE08B1FCF701FF1CBD000000140040CF
:103960000802002010B50B480B4908604FF4E13005
:103970004860002108488160C16001610C214161FB
:1039800000218161C161FFF70BFB08B1FCF7E5FE87
:1039900010BD0000003801405002002010B50C4856
:1039A000FFF7A8FD0B48FFF7A5FD0B48FFF7A2FDA9
:1039B0000A48007830B9FFF717FC0446204603F0A8
:1039C000D7FE04E0064803F0D3FE03F0A3FE10BDCB
:1039D0004C030020600300207403002086000020B8
:1039E0002003002010B51420FDF7A2FDFFF708FC0E
:1039F0001420FDF79DFD03F089F96420FDF798FD83
:103A0000094B102209490A48FFF76AFD094B0822B1
:103A100006490948FFF764FD084B01220849094897
:103A2000FFF75EFD10BD00006D3200080018014078
:103A30004C03002049340008600300206133000873
:103A4000000801407403002000BFFEE700BFFEE74E
:103A50007047000008B508490968C9084FF47A7230
:103A6000B1FBF2F14143009100BF00BF00994A1E33
:103A700000920029F9D108BDA400002010B5024829
:103A8000FEF706FD10BD00006401002070B504467D
:103A90000025FDF763FF054607E0FDF75FFF401BCC
:103AA000B0F57A7F01D9032070BD2068406800F02E
:103AB00020000028F1D02068406840F01000216804
:103AC00048600020F0E770B504460025FDF746FF8A
:103AD000054607E0FDF742FF401BB0F57A7F01D9AC
:103AE000032070BD2068406800F020000028F1D05D
:103AF0002068406840F01000216848600020F0E72E
:103B000070B5044600252068406820F01000216848
:103B10004860FDF723FF054607E0FDF71FFF401B48
:103B2000B0F57A7F01D9032070BD2068406800F0AD
:103B300020000028F1D00020F6E770B504460025EB
:103B40002068406820F0100021684860FDF706FFFB
:103B5000054607E0FDF702FF401BB0F57A7F01D96B
:103B6000032070BD2068406800F020000028F1D0DC
:103B70000020F6E710B50248FEF762FC10BD000019
:103B80006401002030B501460022002300240020FB
:103B90000D68AD69AAB20D68ED69ACB20D68AD698A
:103BA000ABB29A4205D00D68ED6963F31F45284614
:103BB00001E044EA024030BD70B504460D460026DF
:103BC0002046FFF763FF08B101260AE0280C2168B0
:103BD0008861A8B22168C8612046FFF791FF00B153
:103BE0000126304670BD704710B5FDF7BDFE10BD13
:103BF00000B595B028210BA8FCF733FB142106A8CB
:103C0000FCF72FFB18216846FCF72BFB05200B90D7
:103C10004FF480300C9000200D9001200E900F90FA
:103C200002201290C10313914FF4E01114910BA8DC
:103C3000FEF7BAF908B1FCF790FD0F2006900220BC
:103C40000790002008904FF48060099000200A90AF
:103C5000022106A8FEF784F808B1FCF77EFD0320D8
:103C600000904FF480700190C00102906846FDF70B
:103C7000DFFF08B1FCF771FD15B000BD7047000013
:103C800010B50248FEF763FE10BD00007801002069
:103C900010B50268244B98420ED0244B98420BD0AA
:103CA000B0F1804F08D0224B984205D0214B98426A
:103CB00002D0214B984203D122F070024B681A4384
:103CC000194B98420ED0194B98420BD0B0F1804F4F
:103CD00008D0174B984205D0164B984202D0164B8D
:103CE000984203D122F44072CB681A4322F0800339
:103CF0004C6943EA040202608B68C3620B6883620A
:103D0000094B984202D0094B984201D10B690363D9
:103D100001234361036903F001031BB1036923F02D
:103D20000103036110BD0000002C0140003401407C
:103D30000004004000080040000C004030B50C4674
:103D4000816821F47F4142EA0325254329438160AC
:103D500030BD0A46816821F0700142F00703194323
:103D60008160704730B5026A056A25F00105056279
:103D70004368846924F0700424F003040D682C4324
:103D800022F002028D682A43104DA84200D103E0C0
:103D90000F4DA84206D100BF22F00802CD682A4389
:103DA00022F00402094DA84202D0094DA84207D1D1
:103DB00023F4807323F400734D692B438D692B43E7
:103DC000436084614D684563026230BD002C014050
:103DD0000034014030B5026A056A25F0100505621D
:103DE0004368846924F4E04424F440740D6844EA90
:103DF000052422F020028D6842EA0512124DA842E5
:103E000000D103E0114DA84207D100BF22F080028B
:103E1000CD6842EA051222F040020B4DA84202D0C2
:103E20000A4DA84209D123F4806323F400634D694D
:103E300043EA85038D6943EA8503436084614D68E5
:103E40008563026230BD0000002C01400034014057
:103E500030B5026A056A25F4807505624368C46955
:103E600024F0700424F003040D682C4322F4007243
:103E70008D6842EA0522124DA84200D103E0114D9F
:103E8000A84207D100BF22F40062CD6842EA0522B1
:103E900022F480620A4DA84202D00A4DA84209D1FC
:103EA00023F4805323F400534D6943EA05138D69CD
:103EB00043EA05134360C4614D68C563026230BDC7
:103EC000002C01400034014030B5036A056A25F436
:103ED000805505624468C26922F4E04222F44072CF
:103EE0000D6842EA052223F400538D6843EA053346
:103EF000084DA84202D0084DA84204D124F48044C1
:103F00004D6944EA85144460C2614D6805640362EA
:103F100030BD0000002C01400034014030B50B469C
:103F20001446026A056A25F001050562816921F0DF
:103F3000F00141EA041122F00A021A43816102628F
:103F400030BD30B50B461446026A056A25F01005EF
:103F50000562816921F4704141EA043122F0A00236
:103F600042EA03128161026230BD70B505466C6A97
:103F70000020E085E0842046FEF79EFE70BD00BF75
:103F800000BF02680C3252E8002F22F490710268E0
:103F90000C3242E80013002BF3D100BF00BF00BF7A
:103FA0000268143252E8002F22F001010268143234
:103FB00042E80013002BF3D100BF016B01290ED1A1
:103FC00000BF00BF02680C3252E8002F22F010013F
:103FD00002680C3242E80013002BF3D100BF20210D
:103FE00080F8421000210163704710B50446206834
:103FF000C06820F040002168C860202084F841009B
:104000002046FFF7EDF8002010BDF8B5044694F8FF
:104010004200222875D1A068B0F5805F0CD12069DC
:1040200050B90025A66A20684068C0F308003080B7
:10403000A06A801CA06215E0A56A0026A068B0F501
:10404000805F03D0A06828B9206918B9206840684B
:10405000287004E02068406800F07F002870A06AA3
:10406000401CA062E08D401E80B2E085002846D151
:104070002068C06820F020002168C8602068C068FF
:1040800020F480702168C8602068406920F0010039
:1040900021684861202084F8420000206063206B82
:1040A000012826D10020206300BF00BF21680C3109
:1040B00051E8001F21F0100021680C3141E8000296
:1040C000002AF3D100BF2068006800F0100010281B
:1040D0000AD100BF0020009020680068009020688E
:1040E0004068009000BF00BFA18D2046FEF7E3FDB1
:1040F00002E02046FFF714F80020F8BD01E00020A0
:10410000FBE70220F9E7000070B504462168096961
:1041100021F44051E2681143226811612269A168CB
:104120001143626941EA02052168C96841F20C62E3
:10413000914329432268D1602168496921F4407183
:10414000A2691143226851612D4A2168914202D12E
:10415000FDF7E2FE01E0FDF7CFFE00EBC00101EB51
:10416000001162689200B1FBF2F100EBC00202EBB9
:10417000001263689B00B2FBF3F26423B2FBF3F21C
:1041800002EBC20303EB0212A1EB8201322202EB2B
:1041900001116422B1FBF2F101F0F00100EBC00269
:1041A00002EB001263689B00B2FBF3F26423B2FBE4
:1041B000F3F201EB021200EBC00101EB00116368A6
:1041C0009B00B1FBF3F100EBC00303EB0013666847
:1041D000B600B3FBF6F36426B3FBF6F303EBC306BA
:1041E00006EB0313A1EB8301322303EB01116423DC
:1041F000B1FBF3F101F00F0111442268916070BD31
:1042000000380140014691F84100212828D18868F2
:10421000B0F5805F0BD1086948B90A6A1088C0F30D
:1042200008000B685860086A801C086205E00B6A89
:10423000581C086218780B685860C88C401E80B201
:10424000C88458B90868C06820F080000B68D8603E
:104250000868C06840F040000B68D86000207047D4
:104260000220FCE72DE9F84304460D461746984620
:10427000089E31E0701C70B3FDF770FBA0EB0800E6
:10428000B04200D816B90320BDE8F8832068C068A2
:1042900000F00400F8B1802D1ED0402D1CD0206805
:1042A0000068C0F3C000B0B100BF002000902068DB
:1042B0000068009020684068009000BF00BF204662
:1042C000FFF75DFE0820606400BF002084F8400016
:1042D00000BF0120D8E7FFE7206800682840A84217
:1042E00001D1012000E00020B842C3D00020CBE77C
:1042F00010B50248FEF7E2FC10BD0000500200209D
:1043000000BFFEE70FB4084B10B504A902AA03983A
:1043100000F038F8044602A9002000F0D4F9204645
:1043200010BC5DF814FB0000C74600080248006896
:10433000C0F30220704700000CED00E010B500282B
:1043400004DB0A07130E054A135406E00A07140E8D
:10435000034A00F00F031B1FD45410BD00E400E01B
:1043600018ED00E002E008C8121F08C1002AFAD1C7
:1043700070477047002001E001C1121F002AFBD1E5
:10438000704700002DE9FF4F8BB088460546002698
:1043900006E025280BD0DDE90D1290476D1C761C38
:1043A00028780028F5D10FB03046BDE8F08F002402
:1043B000A146A2460122AE4900E0044315F8013FA0
:1043C000203B02FA03F00842F7D128782A2810D0BF
:1043D0006FF02F022878A0F13001092915D809EBD8
:1043E000890102EB410144F0020400EB01096D1C5C
:1043F000F0E758F8041B5FEA010903D544F40054C0
:10440000C9F1000944F002046D1C28782E2817D148
:1044100015F8010F44F004042A280ED06FF02F0283
:104420002878A0F1300109290AD80AEB8A0102EBA9
:10443000410100EB010A6D1CF2E758F804AB6D1C5A
:1044400028786C280FD006DC4C2817D068280DD0AF
:104450006A2814D104E0742810D07A280FD10DE016
:1044600044F400140AE044F4801401E044F44014DD
:104470006978814202D104F580146D1C6D1C287886
:10448000692865D006DC00288DD0632827D06428F1
:1044900006D15DE06E2808D073282AD0752877D021
:1044A000DDE90D129047761CE0E0C4F302500228CB
:1044B00009D003280DD0D8F8001004280DD00E60C4
:1044C00008F10408D2E0D8F80010F217C1E9006240
:1044D000F6E7D8F800100E80F2E70E70F0E718F853
:1044E000041B8DF8001000208DF80100EB46012020
:1044F00003E058F804BB4FF0FF3061074FF00007AE
:1045000001D40AE07F1C57450DDA8742FADB1BF81D
:1045100007100029F6D106E07F1C8742FCDB1BF860
:1045200007100029F8D1DDE90D23A9EB070081462A
:10453000214600F0B1F83044C61904E0DDE90D125F
:104540001BF8010B90477F1EF8D22146484688E0B1
:1045500058F8040BC4F302514FF00A0B032900D1A1
:1045600000B2042900D140B2002802DA40422D21D5
:1045700002E0210505D52B218DF82410012104E04E
:1045800006E0E10710D02021F6E708AF089113E01C
:1045900058F8040BC4F302514FF00A0B032900D161
:1045A00080B2042900D1C0B20021EEE75946FBF7E2
:1045B00002FF303107F8011D0028F7D1ADEB0700ED
:1045C00000F1200B600702D524F4803401E04FF0A5
:1045D000010ADA4502DDAAEB0B0000E0002082466A
:1045E00000EB0B0108980144A9EB01000A90E003DD
:1045F00006D4DDE90D2321460A9800F04DF8064463
:104600004FF0000908E009A911F80900DDE90D12D1
:10461000904709F10109761C08998945F3DBE0030D
:104620000CD5DDE90D2321460A9800F035F8064443
:1046300004E0DDE90D1230209047761CBAF100014C
:10464000AAF1010AF5DC05E0DDE90D1217F8010B0E
:104650009047761CBBF10001ABF1010BF4DC0A982A
:104660002146DDE90D2300F005F806446D1C97E6B0
:10467000092801002DE9F041044600251E46174691
:10468000880404D405E039462020B0476D1C641E20
:10469000F9D52846BDE8F0812DE9F0410446002512
:1046A0001E469046C80301D5302700E02027880425
:1046B00004D505E041463846B0476D1C641EF9D567
:1046C0002846BDE8F0810A68531C0B6010707047E3
:1046D00010B50220044908704FF6FF7000F03CF856
:1046E00000200149087010BD8C00002010B5044660
:1046F0001148007800B110BD40F63C7084420ADDDC
:104700000E480078012806D0002000F025F801208E
:104710000A4908700DE040F6AC50844209DA0748B7
:10472000007830B14FF6FF7000F016F80020034912
:10473000087000BFDFE70000860000208C0000202A
:10474000044A116800BF034A1268521A8242FAD31F
:10475000704700009800002070B504460026094804
:104760000588408845430021084602F0C3FD02F059
:1047700069FF00BF02E004480480761CAE42FAD311
:1047800070BD0000D00300200008006C10B5044686
:1047900049488471002C45D1F020474908804FF4E6
:1047A000A07048800846808845F21051884210D198
:1047B0004FF43050404908814FF4285048814FF45D
:1047C0002C5088814FF4F07008804FF44870488076
:1047D0001AE03948808841F6631188420DD12C20B7
:1047E000354908812B2048812A2088814FF4F070B8
:1047F00008804FF44870488006E02C202E4908813C
:104800002A2048812B2088812B48808845F210314E
:1048100088424CD14FF4A070274908804FF4F070C3
:10482000488044E04FF4A07023490880F02048807D
:104830000846808845F21051884210D14FF430501C
:104840001D4908814FF4285048814FF42C5088812D
:104850004FF4487008804FF4F07048801AE0164812
:10486000808841F6631188420DD12C2012490881BD
:104870002A2048812B2088814FF4487008804FF40B
:10488000F070488006E02C200B4908812A204881DE
:104890002B2088810848808845F21031884206D153
:1048A0004FF4F070044908804FF4A0704880002055
:1048B00002F008FC10BD0000D00300202DE9FF4FDE
:1048C00084B081468A460020029083460698A0EB79
:1048D00009050798A0EB0A06CDF80490CDF800A0D2
:1048E000002D01DD012705E00DB9002702E04FF0A2
:1048F000FF376D42002E02DD4FF0010806E016B9C9
:104900004FF0000802E04FF0FF387642B54201DD7B
:104910002C4600E03446002003901EE0009A91B23D
:10492000019A90B2119A00F01FF802982844029060
:10493000B3440298A04205DD0298001B0290019842
:1049400038440190A34504DDABEB040B00984044D0
:1049500000900398401C80B20390611C0398884229
:10496000DCDD08B0BDE8F08F70B505460E46144694
:104970003146284602F0BEFC02F064FE01490C807C
:1049800070BD00000008006C10B5CF2002F04EFE94
:10499000002002F03FFEC12002F03CFE302002F079
:1049A00039FEED2002F042FE642002F033FE0320C7
:1049B00002F030FE122002F02DFE812002F02AFECD
:1049C000E82002F033FE852002F024FE102002F0E1
:1049D00021FE7A2002F01EFECB2002F027FE3920B5
:1049E00002F018FE2C2002F015FE002002F012FE4C
:1049F000342002F00FFE022002F00CFEF72002F03D
:104A000015FE202002F006FEEA2002F00FFE002034
:104A100002F000FE002002F0FDFDC02002F006FEC4
:104A20001B2002F0F7FDC12002F000FE012002F081
:104A3000F1FDC52002F0FAFD302002F0EBFD302040
:104A400002F0E8FDC72002F0F1FDB72002F0E2FD20
:104A5000362002F0EBFD482002F0DCFD3A2002F0A7
:104A6000E5FD552002F0D6FDB12002F0DFFD00206B
:104A700002F0D0FD1A2002F0CDFDB62002F0D6FDE6
:104A80000A2002F0C7FDA22002F0C4FDF22002F0CD
:104A9000CDFD002002F0BEFD262002F0C7FD012062
:104AA00002F0B8FDE02002F0C1FD0F2002F0B2FDDF
:104AB0002A2002F0AFFD282002F0ACFD082002F011
:104AC000A9FD0E2002F0A6FD082002F0A3FD54204F
:104AD00002F0A0FDA92002F09DFD432002F09AFD06
:104AE0000A2002F097FD0F2002F094FD002002F052
:104AF00091FD002002F08EFD002002F08BFD0020D1
:104B000002F088FDE12002F091FD002002F082FD1C
:104B1000152002F07FFD172002F07CFD072002F037
:104B200079FD112002F076FD062002F073FD2B20A6
:104B300002F070FD562002F06DFD3C2002F06AFD8F
:104B4000052002F067FD102002F064FD0F2002F046
:104B500061FD3F2002F05EFD3F2002F05BFD0F2073
:104B600002F058FD2B2002F061FD002002F052FD02
:104B7000002002F04FFD012002F04CFD3F2002F02A
:104B800049FD2A2002F052FD002002F043FD0020E2
:104B900002F040FD002002F03DFDEF2002F03AFD62
:104BA000112002F043FD7820FFF7CAFD292002F012
:104BB0003DFD10BD10B5ED2002F038FD012002F0E2
:104BC00029FDFE2002F026FDEE2002F02FFDDE2062
:104BD00002F020FD212002F01DFDF12002F026FD53
:104BE000012002F017FDDF2002F020FD102002F06E
:104BF00011FDC42002F01AFD8F2002F00BFDC6202B
:104C000002F014FD002002F005FDE22002F002FD9A
:104C1000E22002F0FFFCE22002F0FCFCBF2002F0E8
:104C200005FDAA2002F0F6FCB02002F0FFFC0D20EA
:104C300002F0F0FC002002F0EDFC0D2002F0EAFC96
:104C4000002002F0E7FC112002F0E4FC002002F05A
:104C5000E1FC192002F0DEFC002002F0DBFC212048
:104C600002F0D8FC002002F0D5FC2D2002F0D2FC8E
:104C7000002002F0CFFC3D2002F0CCFC002002F02E
:104C8000C9FC5D2002F0C6FC002002F0C3FC5D20E0
:104C900002F0C0FC002002F0BDFCB12002F0C6FC16
:104CA000802002F0B7FC002002F0B4FC8B2002F060
:104CB000B1FC002002F0AEFC962002F0ABFC00201C
:104CC00002F0A8FCB22002F0B1FC002002F0A2FC2D
:104CD000002002F09FFC022002F09CFC002002F069
:104CE00099FC032002F096FC002002F093FCB32014
:104CF00002F09CFC002002F08DFC002002F08AFCF7
:104D0000002002F087FC002002F084FC002002F06A
:104D100081FC002002F07EFC002002F07BFC0020E1
:104D200002F078FC002002F075FC002002F072FC1A
:104D3000002002F06FFC002002F06CFC002002F06A
:104D400069FC002002F066FC002002F063FC0020F9
:104D500002F060FC002002F05DFC002002F05AFC32
:104D6000002002F057FC002002F054FC002002F06A
:104D700051FC002002F04EFC002002F04BFC002011
:104D800002F048FCB42002F051FC8B2002F042FCFF
:104D9000002002F03FFC962002F03CFC002002F0D4
:104DA00039FCA12002F036FC002002F033FCB520D3
:104DB00002F03CFC022002F02DFC002002F02AFC54
:104DC000032002F027FC002002F024FC042002F063
:104DD00021FC002002F01EFCB62002F027FC00207F
:104DE00002F018FC002002F015FCB72002F01EFCB7
:104DF000002002F00FFC002002F00CFC3F2002F02B
:104E000009FC002002F006FC5E2002F003FC0020FA
:104E100002F000FC642002F0FDFB002002F0FAFB2F
:104E20008C2002F0F7FB002002F0F4FBAC2002F033
:104E3000F1FB002002F0EEFBDC2002F0EBFB002097
:104E400002F0E8FB702002F0E5FB002002F0E2FB3C
:104E5000902002F0DFFB002002F0DCFBEB2002F0F0
:104E6000D9FB002002F0D6FBDC2002F0D3FB0020AF
:104E700002F0D0FBB82002F0D9FB002002F0CAFB00
:104E8000002002F0C7FB002002F0C4FB002002F06B
:104E9000C1FB002002F0BEFB002002F0BBFB0020A3
:104EA00002F0B8FB002002F0B5FBBA2002F0BEFB16
:104EB000242002F0AFFB002002F0ACFB002002F047
:104EC000A9FB002002F0A6FBC12002F0AFFB2020CE
:104ED00002F0A0FB002002F09DFB542002F09AFBA0
:104EE000002002F097FBFF2002F094FB002002F06C
:104EF00091FBC22002F09AFB0A2002F08BFB0020FB
:104F000002F088FB042002F085FB002002F082FB07
:104F1000C32002F08BFB3C2002F07CFB002002F05F
:104F200079FB3A2002F076FB002002F073FB392077
:104F300002F070FB002002F06DFB372002F06AFBEC
:104F4000002002F067FB3C2002F064FB002002F02E
:104F500061FB362002F05EFB002002F05BFB32209A
:104F600002F058FB002002F055FB2F2002F052FB0C
:104F7000002002F04FFB2C2002F04CFB002002F03E
:104F800049FB292002F046FB002002F043FB2620CB
:104F900002F040FB002002F03DFB242002F03AFB2F
:104FA000002002F037FB242002F034FB002002F046
:104FB00031FB232002F02EFB002002F02BFB3C20D3
:104FC00002F028FB002002F025FB362002F022FB35
:104FD000002002F01FFB322002F01CFB002002F038
:104FE00019FB2F2002F016FB002002F013FB2C20EF
:104FF00002F010FB002002F00DFB292002F00AFB5A
:10500000002002F007FB262002F004FB002002F043
:1050100001FB242002F0FEFA002002F0FBFA24201B
:1050200002F0F8FA002002F0F5FA232002F0F2FA7A
:10503000002002F0EFFAC42002F0F8FA622002F039
:10504000E9FA002002F0E6FA052002F0E3FA002077
:1050500002F0E0FA842002F0DDFA002002F0DAFA31
:10506000F02002F0D7FA002002F0D4FA182002F063
:10507000D1FA002002F0CEFAA42002F0CBFA0020F0
:1050800002F0C8FA182002F0C5FA002002F0C2FAB5
:10509000502002F0BFFA002002F0BCFA0C2002F00F
:1050A000B9FA002002F0B6FA172002F0B3FA002095
:1050B00002F0B0FA952002F0ADFA002002F0AAFA50
:1050C000F32002F0A7FA002002F0A4FAE62002F092
:1050D000A1FA002002F09EFAC52002F0A7FA3220C1
:1050E00002F098FA002002F095FA442002F092FAB9
:1050F000002002F08FFA652002F08CFA002002F006
:1051000089FA762002F086FA002002F083FA8820DD
:1051100002F080FA002002F07DFAC62002F086FA42
:10512000202002F077FA002002F074FA172002F033
:1051300071FA002002F06EFA012002F06BFA0020F2
:1051400002F068FAC72002F071FA002002F062FA59
:10515000002002F05FFA002002F05CFA002002F06A
:1051600059FAC82002F062FA002002F053FA002037
:1051700002F050FA002002F04DFA002002F04AFA44
:10518000C92002F053FA002002F044FA002002F095
:1051900041FA002002F03EFA002002F03BFA002023
:1051A00002F038FA002002F035FA002002F032FA5C
:1051B000002002F02FFA002002F02CFA002002F06A
:1051C00029FA002002F026FA002002F023FA00203B
:1051D00002F020FA002002F01DFA002002F01AFA74
:1051E000002002F017FAE02002F020FA162002F068
:1051F00011FA002002F00EFA1C2002F00BFA002037
:1052000002F008FA212002F005FA002002F002FA6A
:10521000362002F0FFF9002002F0FCF9462002F0EF
:10522000F9F9002002F0F6F9522002F0F3F900201B
:1052300002F0F0F9642002F0EDF9002002F0EAF942
:105240007A2002F0E7F9002002F0E4F98B2002F066
:10525000E1F9002002F0DEF9992002F0DBF90020EC
:1052600002F0D8F9A82002F0D5F9002002F0D2F916
:10527000B92002F0CFF9002002F0CCF9C42002F0EE
:10528000C9F9002002F0C6F9CA2002F0C3F90020D3
:1052900002F0C0F9D22002F0BDF9002002F0BAF904
:1052A000D92002F0B7F9002002F0B4F9E02002F0B2
:1052B000B1F9002002F0AEF9F32002F0ABF90020C2
:1052C00002F0A8F9E12002F0B1F9162002F0A2F9EB
:1052D000002002F09FF91C2002F09CF9002002F04F
:1052E00099F9222002F096F9002002F093F9362075
:1052F00002F090F9002002F08DF9452002F08AF9C1
:10530000002002F087F9522002F084F9002002F018
:1053100081F9642002F07EF9002002F07BF97A2006
:1053200002F078F9002002F075F98B2002F072F992
:10533000002002F06FF9992002F06CF9002002F0D1
:1053400069F9A82002F066F9002002F063F9B9209B
:1053500002F060F9002002F05DF9C42002F05AF971
:10536000002002F057F9CA2002F054F9002002F0A0
:1053700051F9D22002F04EF9002002F04BF9D8206A
:1053800002F048F9002002F045F9E02002F042F96D
:10539000002002F03FF9F32002F03CF9002002F077
:1053A00039F9E22002F042F9052002F033F9002039
:1053B00002F030F90B2002F02DF9002002F02AF95A
:1053C0001B2002F027F9002002F024F9342002F01B
:1053D00021F9002002F01EF9442002F01BF9002000
:1053E00002F018F94F2002F015F9002002F012F92E
:1053F000612002F00FF9002002F00CF9792002F090
:1054000009F9002002F006F9882002F003F90020D3
:1054100002F000F9972002F0FDF8002002F0FAF8FF
:10542000A62002F0F7F8002002F0F4F8B72002F00E
:10543000F1F8002002F0EEF8C22002F0EBF80020B4
:1054400002F0E8F8C72002F0E5F8002002F0E2F8E8
:10545000D12002F0DFF8002002F0DCF8D62002F0C4
:10546000D9F8002002F0D6F8DD2002F0D3F80020B1
:1054700002F0D0F8F32002F0CDF8002002F0CAF8D4
:10548000E32002F0D3F8052002F0C4F8002002F077
:10549000C1F80A2002F0BEF8002002F0BBF81C2080
:1054A00002F0B8F8002002F0B5F8332002F0B2F8AC
:1054B000002002F0AFF8442002F0ACF8002002F027
:1054C000A9F8502002F0A6F8002002F0A3F862200C
:1054D00002F0A0F8002002F09DF8782002F09AF87F
:1054E000002002F097F8882002F094F8002002F0E3
:1054F00091F8972002F08EF8002002F08BF8A62099
:1055000002F088F8002002F085F8B72002F082F857
:10551000002002F07FF8C22002F07CF8002002F0A8
:1055200079F8C72002F076F8002002F073F8D12055
:1055300002F070F8002002F06DF8D52002F06AF851
:10554000002002F067F8DD2002F064F8002002F08D
:1055500061F8F32002F05EF8002002F05BF8E4202E
:1055600002F064F8012002F055F8002002F052F831
:10557000012002F04FF8002002F04CF8022002F067
:1055800049F8002002F046F82A2002F043F80020F3
:1055900002F040F83C2002F03DF8002002F03AF81A
:1055A0004B2002F037F8002002F034F85D2002F0C2
:1055B00031F8002002F02EF8742002F02BF80020C1
:1055C00002F028F8842002F025F8002002F022F8EA
:1055D000932002F01FF8002002F01CF8A22002F035
:1055E00019F8002002F016F8B32002F013F800209A
:1055F00002F010F8BE2002F00DF8002002F00AF8C8
:10560000C42002F007F8002002F004F8CD2002F0D8
:1056100001F8002001F0FEFFD32001F0FBFF002085
:1056200001F0F8FFDD2001F0F5FF002001F0F2FFAE
:10563000F32001F0EFFF002001F0ECFFE52001F086
:10564000F5FF002001F0E6FF002001F0E3FF00205D
:1056500001F0E0FF002001F0DDFF022001F0DAFFA1
:10566000002001F0D7FF292001F0D4FF002001F035
:10567000D1FF3C2001F0CEFF002001F0CBFF4B20FA
:1056800001F0C8FF002001F0C5FF5D2001F0C2FF5E
:10569000002001F0BFFF742001F0BCFF002001F0EA
:1056A000B9FF842001F0B6FF002001F0B3FF932082
:1056B00001F0B0FF002001F0ADFFA22001F0AAFF31
:1056C000002001F0A7FFB32001F0A4FF002001F0AB
:1056D000A1FFBE2001F09EFF002001F09BFFC4202F
:1056E00001F098FF002001F095FFCD2001F092FF1E
:1056F000002001F08FFFD32001F08CFF002001F08B
:1057000089FFDC2001F086FF002001F083FFF320F9
:1057100001F080FF002001F07DFFE62001F086FF10
:10572000112001F077FF002001F074FF342001F018
:1057300071FF002001F06EFF562001F06BFF00208A
:1057400001F068FF762001F065FF002001F062FFA4
:10575000772001F05FFF002001F05CFF662001F080
:1057600059FF002001F056FF882001F053FF002070
:1057700001F050FF992001F04DFF002001F04AFF99
:10578000BB2001F047FF002001F044FF992001F009
:1057900041FF002001F03EFF662001F03BFF0020AA
:1057A00001F038FF552001F035FF002001F032FFF5
:1057B000552001F02FFF002001F02CFF452001F0C3
:1057C00029FF002001F026FF432001F023FF0020E5
:1057D00001F020FF442001F01DFF002001F01AFF1E
:1057E000E72001F023FF322001F014FF002001F038
:1057F00011FF552001F00EFF002001F00BFF762075
:1058000001F008FF002001F005FF662001F002FF13
:10581000002001F0FFFE672001F0FCFE002001F0F7
:10582000F9FE672001F0F6FE002001F0F3FE87206C
:1058300001F0F0FE002001F0EDFE992001F0EAFEFB
:10584000002001F0E7FEBB2001F0E4FE002001F0A3
:10585000E1FE992001F0DEFE002001F0DBFE772062
:1058600001F0D8FE002001F0D5FE442001F0D2FE68
:10587000002001F0CFFE562001F0CCFE002001F008
:10588000C9FE232001F0C6FE002001F0C3FE332034
:1058900001F0C0FE002001F0BDFE452001F0BAFE7F
:1058A000002001F0B7FEE82001F0C0FE002001F06A
:1058B000B1FE002001F0AEFE992001F0ABFE002009
:1058C00001F0A8FE872001F0A5FE002001F0A2FE55
:1058D000882001F09FFE002001F09CFE772001F05F
:1058E00099FE002001F096FE662001F093FE002054
:1058F00001F090FE882001F08DFE002001F08AFE6C
:10590000AA2001F087FE002001F084FEBB2001F0F8
:1059100081FE002001F07EFE992001F07BFE002038
:1059200001F078FE662001F075FE002001F072FEA5
:10593000552001F06FFE002001F06CFE552001F0B3
:1059400069FE002001F066FE442001F063FE0020A5
:1059500001F060FE442001F05DFE002001F05AFEDF
:10596000552001F057FE002001F054FEE92001F01F
:105970005DFEAA2001F04EFE002001F04BFE00204B
:1059800001F048FE002001F045FE002001F04EFE2F
:10599000AA2001F03FFECF2001F048FE002001F0D8
:1059A00039FE002001F036FE002001F033FE002019
:1059B00001F030FE002001F02DFE002001F02AFE53
:1059C000002001F027FE002001F024FE002001F05D
:1059D00021FE002001F01EFE002001F01BFE002031
:1059E00001F018FE002001F015FE002001F012FE6B
:1059F000002001F00FFE002001F00CFE002001F05D
:105A000009FEF02001F012FE002001F003FE5020FC
:105A100001F000FE002001F0FDFD002001F0FAFD84
:105A2000002001F0F7FDF32001F000FE002001F05E
:105A3000F1FDF92001F0FAFD062001F0EBFD102048
:105A400001F0E8FD292001F0E5FD002001F0E2FD74
:105A50003A2001F0EBFD552001F0DCFD112001F0B2
:105A6000E5FD6420FEF76CFE292001F0DFFD352006
:105A700001F0DCFD002001F0CDFD512001F0D6FD4C
:105A8000FF2001F0C7FD532001F0D0FD2C2001F0D4
:105A9000C1FD552001F0CAFD822001F0BBFD2C2084
:105AA00001F0C4FD10BD10B555214FF4704001F058
:105AB000D3FDAA214FF2010001F0CEFD52214FF299
:105AC000020001F0C9FD08214FF2030001F0C4FDFE
:105AD00001214FF2040001F0BFFD0D214FF43040D1
